:100000000E308A00E82E00000A108A100A118207BA
:10001000503452344F344734523441344D344D34DB
:100020004534523400340A108A100A1182075734BA
:10003000523449345434453420344F344B34003432
:100040000A108A100A1182077234653463346F34DF
:100050006E346E3465346334743400340A108A109C
:100060000A1182074D3449344E3400340A108A1084
:100070000A1182074D344134583400340A108A1072
:100080000A118207443449344634463400340A1095
:100090008A100A1182074334313400340A108A105E
:1000A0000A1182074334323400340A108A100A11CC
:1000B00082074334333400340A108A100A1182074D
:1000C00050345034523400340A108A100A11820716
:1000D0004334303400340A108A100A118207533432
:1000E0004534543420345334503445344534443446
:1000F00000340A108A100A118207503445344434FF
:1001000041344C3420345434593450344534003460
:100110000A108A100A11820743344F344E34543483
:1001200052344F344C340034593084008317000863
:100130000319A7280230F800F701F70B9D28F80BE8
:100140009C289730F700F70BA328800B9A2808000B
:100150008714AA288710080003172E0E03138500A2
:100160000F3085050710A8208430F700F70BB6285C
:10017000B928000003172E0803138500A8200230B9
:100180000317D90003139420080083160710871063
:100190008501143083120317D90003139420023011
:1001A0000317AE000313AC2028300317AE0003136F
:1001B000AC200C300317AE000313AC20063003173D
:1001C000AE000313AC2001300317AE000313AC20C4
:1001D00002300317D900031394208A15562F0130DB
:1001E0000317AE000313AC20080003172C08803857
:1001F000AD00AE000313AC2008000317580E031324
:1002000085000F3085050714A8208430F700F70B10
:1002100007290A2900000317580803138500A8209E
:1002200002300317D900031394200800031756085F
:10023000FA005508840083137A188317800803197D
:1002400037295608FA005508840083135618831777
:100250000008D700D8000313FD200317D50A03199F
:10026000D60A0130D900031394201629031703136B
:100270000800EF2043300317AC000313F520F8010A
:100280000B30F7005B308400831378080420800073
:10029000F80A840AF70B45290317D6015B30D5000D
:1002A00003131621A71408008C1E54291808A60051
:1002B0001A08F800A61C5E291812181608008E30BD
:1002C000F70003175608F8005508F900FA01F80876
:1002D000031D74297908F800F9010830F702F808BD
:1002E000031D7429F7017C290310F81B7B29F90DE4
:1002F000F80DF7037429F8130313080003176208B5
:100300000319EF29EA0066080319EF29EA07031821
:1003100090297F30EA02031CEF290319EF29942961
:100320008130EA070318EF296A08F700F801F9019C
:10033000FA016308EE00EE176408ED006508EC00B2
:100340001830EA00EB016C1CBD296908FA07031C90
:10035000AF29F90A031DAF29F80A0319EB1768083A
:10036000F907031CB629F80A0319EB176708E4001C
:10037000E4176408F8070318EB17EB0DF80CF90CF9
:10038000FA0CEE0CED0CEC0C0310EA0BA229013078
:10039000F7070318EF29F81BD429EE0DFA0DF90D14
:1003A000F80DF7030319EF29EE1FE529FA0A031DDB
:1003B000E529F90A031DE529F80A031DE529F80CCA
:1003C000F90CFA0CF70A0319EF296308EB00670828
:1003D000EB06EB1FED29F817F329F813F329F701C2
:1003E000F801F901FA01031308008030831CFB298E
:1003F0000317DA0603130317DF01E0015608DE00D6
:100400005A08DE0655080319E92ADD00F7005908E5
:100410000319F22ADD0203198E2A031C4C2A5A08FA
:10042000E300E3175B08E2005C08E100E001031071
:10043000E30CE20CE10CE00CDD0B162ADE1F232A94
:100440005F14062B5F105D105F1658308400831711
:100450001B2B5F12DE1B362A5D1C412AE30CE20CCB
:10046000E10CE00CF70A0319012B412AE31B442A93
:100470000310E00DE10DE20DE30DF7030319012B6D
:10048000362A5F17AE2A5F135608DE00DE1F4A2A9F
:10049000E317FA2AE313FA2A5908DD00F700550892
:1004A000DD025608E300E3175708E2005808E100B0
:1004B000E0010310E30CE20CE10CE00CDD0B582A28
:1004C000DE1F652ADF14062BDF105D10DF165C309F
:1004D000840083171B2BDF12DE1B782A5D1C832A06
:1004E000E30CE20CE10CE00CF70A0319012B832A60
:1004F000E31B862A0310E00DE10DE20DE30DF70387
:100500000319012B782ADF17AE2ADF135A08DE0001
:10051000DE1F8C2AE317FA2AE313FA2A5A08E300AB
:10052000E3175B08E2005C08E100DE1F9B2AE3138F
:100530005F15062B5F11E0015D10583084008317B2
:100540001B2BDE1BC42A5608DE005D1CAE2AE30C02
:10055000E20CE10CE00CF70A0319012BE01FBF2AA3
:10056000E10A031DBF2AE20A031DBF2AE30A031D95
:10057000BF2AE30CE20CE10CF70A0319012B5F1B05
:10058000432ADF1B852AE32A8030E306E31FCC2AB7
:10059000062B5A08DE00D92A5608DE00E308031DA0
:1005A000D92AE208031DD92AE108031DD92AF70137
:1005B000FA2AE31BE32A0310E00DE10DE20DE30D3F
:1005C000F70BD92A012BDE1FE72AE317FA2AE313D8
:1005D000FA2A5908F7005A08E3005B08E2005C08B1
:1005E000E100FA2A5508F7005608E3005708E20030
:1005F0005808E1006308F8006208F9006108FA0091
:10060000392BF701F801F901FA01392BE001E10971
:10061000E209E309E009E00A031D142BE10A031DC6
:10062000142BE20A0319E30A5F18222ADF18642A4E
:100630005F199A2AC92A0008E107031C252BE20A40
:10064000031D252BE30A03195D1484030008E20748
:10065000031C2D2BE30A03195D1484030008801F7B
:10066000803AE30703185D145F1A292ADF1A6B2A00
:10067000A12A03130800031730080319012CBC003A
:1006800034080319012CBC02031C4B2B7F30BC0720
:100690000318012C512B8130BC02031C012C0319BF
:1006A000012C3C08F700F801F901FA01BB013108FF
:1006B000BA00BA173208B9003308B8001930BC00C4
:1006C0003708B8020318742B0130B9020318742BD1
:1006D000BA020318742BBB020318742BBB0ABA0AA4
:1006E000B90A3708B807A62B3608B90203188F2BAA
:1006F0000130BA0203188F2BBB0203188F2BBB0AE1
:10070000BA0A3608B9073708B807031CA62BB90A76
:10071000031DA62BBA0A031DA62BBB0AA62B350860
:100720008038BA020318A52B0130BB020318A52B91
:10073000BB0A35088038BA073608B907031C832B73
:10074000BA0A031D832BBB0A832B7A14BC0BA92B7B
:10075000B42B0310B80DB90DBA0DBB0D0310FA0D73
:10076000F90DF80DBD0D602B3D1CBC2B0310F80CD2
:10077000F90CFA0CBD0CBF2BF7030319012CBD1BA0
:10078000E82B0310B80DB90DBA0DBB0D3708B80230
:100790000318D42B0130B9020318D42BBA02031862
:1007A000D42BBB02031CF72B3608B9020318DF2B2E
:1007B0000130BA020318DF2BBB02031CF72B3508EC
:1007C0008038BA020318E82B0130BB02031CF72B58
:1007D000FA0A031DF72BF90A031DF72BF80A031D6C
:1007E000F72BF70A0319012CF80CF90CFA0C310855
:1007F000BC003508BC06BC1FFF2BF817052CF813EE
:10080000052CF701F801F901FA01031308008E30F5
:10081000F70003175508F7025608F9005708F800C3
:10082000F917F70803191F2C0310F908031D1B2CD7
:10083000F80803191F2CF90CF80CF70B142CD61F11
:10084000262CF809F909F80A0319F90A0313080014
:1008500003173108B8003508B806B81F342C031147
:100860000310B11B0314672C3108B8003408B90019
:100870003008B9020319422CB81F672C0308013A4B
:100880008300672C3508B9003108B90203194E2CD2
:10089000B81F672C0308013A8300672C3608B9009B
:1008A0003208B90203195A2CB81F672C0308013A01
:1008B0008300672C3708B9003308B9020319662C86
:1008C000B81F672C0308013A8300672C0310031339
:1008D0000800580884008313591883170317620807
:1008E0008000840A80010313D80A0319D90A08007A
:1008F00083187D2C6A3084008317F701F801F90111
:10090000FA010317EA01EB01EC01ED016908680443
:10091000670466040319BC2C2030EE000310E20DBE
:10092000E30DE40DE50DEA0DEB0DEC0DED0D6908A1
:100930006D02031DA52C68086C02031DA52C670819
:100940006B02031DA52C66086A02031CB62C660800
:10095000EA026708031C670FEB026808031C680FB4
:10096000EC026908031C690FED020314F70DF80D82
:10097000F90DFA0DEE0B8E2C6A088000840A6B08C4
:100980008000840A6C088000840A6D0880000313CC
:10099000080004080317DA005908DC000319EB2CDF
:1009A0005808E5005708E4005608E3005508E2003F
:1009B000E901E8012030E7008230E60003137E21E0
:1009C0007A080317D8007908D7007808D600770886
:1009D000D500DC0BD02C5808E5005708E400560879
:1009E000E3005508E2006208B63CE200FA01630841
:1009F000E600E3170310E30CE40CE50CFA0CF90C29
:100A0000F80CF70CE20BFA2CE61F112DF709F80988
:100A1000F909FA09F70A0319F80A0319F90A031977
:100A2000FA0A7A08D8007908D7007808D60077083B
:100A3000D500D81F282DDA03DA16D509D609D7092B
:100A4000D809D50A0319D60A0319D70A0319D80AEF
:100A50003B30E1009A30E000CA30DF00DE010A30AE
:100A6000DC0059080319DA0A83145530840083170F
:100A70005808E5005708E4005608E3005508E2006E
:100A80006108E9006008E8005F08E7005E08E6002A
:100A9000031378247808F708031D652D0317590AF6
:100AA0005C02031D552D0313652D5A080319682D8B
:100AB0000F395C0203195E2D0318A02DDA1BA02D3F
:100AC0005A1B682D20309A2D031320300317DA05A6
:100AD000DA1E782DDA125908031DDA037708DA00D6
:100AE0002D30E2000313692403175A08F700DA01D6
:100AF00059085C02031D882D7708DA002E30E200C9
:100B00000313692403175A08F7002030DA05003070
:100B10003030DA1E9A2DDA125908031DDA037708ED
:100B2000DA002D30E2000313692403175A08F70096
:100B3000DA013030F7077708E2000313692403175E
:100B400083106108E5006008E4005F08E3005E08C8
:100B5000E200E901E801E7010A30E6000313782426
:100B60007A080317E1007908E0007808DF007708C9
:100B7000DE00DC0B342D03138A11DD2E80080319EF
:100B8000DA2D0317D6010408D5005610831B56141E
:100B90000008E20003136924031755088400831337
:100BA00056188317840A031DD82D0313850A0317CB
:100BB0000313BE2D080003173408D8003308D700EC
:100BC0003208D6003108D50003130724790803172B
:100BD000B8007808B7003808033C031CFF2D031D3C
:100BE000F52D3708E63C031CFF2DB808031DFC2D2E
:100BF0003708633C0318FF2D0330B900192EB808DD
:100C0000031D102E3708623C031C102EB808031D6C
:100C10000D2E3708093C0318102E0230B900192E8A
:100C2000B808031D192E3708083C031C192E013083
:100C3000B9003808D6003708D50003135F218314A4
:100C400003173408D8003308D7003208D60031081B
:100C5000D5007A08DC007908DB007808DA0077082C
:100C6000D9000313F5217A080317BE007908BD00E7
:100C70007808BC007708BB0001300313D9003F306F
:100C8000D8001030840003173808D6003708D50084
:100C9000DD010408DC005D10831B5D14D61F582E97
:100CA000DC175C1EDC0AD509D609D50A0319D60A59
:100CB000560EF038D800D807E23ED900323EDB00AD
:100CC00056080F39D907D907DB07E93EDA00DA07FA
:100CD000DA07550E0F39DA07DB07DA0DDB0DDB0912
:100CE000DB0D55080F39DB07D80D0730D7000A3068
:100CF000DB07DA03031C782EDA07D903031C7C2EEA
:100D0000D907D803031C802ED807D703031C842ED1
:100D100057308400831707305C055C1384035C053F
:100D2000031D992E5C1A840A5C1A992E2030F70054
:100D3000B62E84075B30040203195C170008F70025
:100D4000031DAA2E5C1BAA2E5C1AC62EDC19AA2E25
:100D50002030B52EDC1FB22E2D30F70084035C133B
:100D6000DC13B62EDC155C123030F707D601040810
:100D7000D5005610831B56147708E200031369242C
:100D8000031755088400831356188317840A5C1FC1
:100D90009A2E01300313D9004330D8004530840027
:100DA00003173E08D8003D08D7003C08D6003B0892
:100DB000D5000430D9000313C92C0317D401013026
:100DC000350754020318FF2E43305407F800013052
:100DD000FA000318FA0A7808D5007A08D60001301C
:100DE0005407433E840083170008D7005508840049
:100DF00083135618831757088000D40ADF2E433018
:100E0000540784008317800101300313D9004A304E
:100E1000D8003F3084008317BE25433084008317F9
:100E2000BE250317B6080319282FB508031D202F68
:100E30000130D6003F30D50003131621262F0317AB
:100E40000130D6004A30D50003131621472F03176F
:100E50004A308400831780080319462FD6010408FE
:100E6000D5005610831B5614000803130C1E362F92
:100E70009900031755088400831356188317840AB2
:100E8000031D452F0313850A03172B2F0313080097
:100E90005B08073C031C612F5B0DF700F70DFC306E
:100EA000F70577082F3E840083135C088000840ACE
:100EB0005D088000840A5E088000840A5F08800064
:100EC0009A2F5B08083C031D7B2F5F080317D8008F
:100ED00003135E080317D70003135D080317D6003A
:100EE00003135C080317D500031307247908AD002A
:100EF0007808AC009A2F5B08093C031D932F5F080C
:100F00000317D80003135E080317D70003135D0807
:100F10000317D60003135C080317D5000313072437
:100F20007808AE009A2F5B080A3C031D9A2F271001
:080F30005C1827148A15732FC9
:101000002A300C1E0128990001300317D9008A11DB
:10101000031394208A150317A2012208073C031C1E
:101020009C282208023C031819282208063C0318B1
:101030003D28220DF700F70DFC30F70577082F3E0D
:10104000840083130008AC00840A0008AD00840A01
:101050000008AE00840A0008AF00B4002E08B300F8
:101060002D08B2002C08B1000230B500B6018A117B
:101070000313DB258A15932803172208023C031863
:101080006D282208053C031C6D28220DF700F70D82
:10109000FC30F70577082F3E840083130008AC006E
:1010A000840A0008AD00840A0008AE00840A000823
:1010B000AF0001302202B0002F08B4002E08B300A8
:1010C0002D08B2002C08B1003008B500B6018A1115
:1010D0000313DB258A15932803172208063C031DFA
:1010E0009428220DF700F70DFC30F70577082F3E06
:1010F000840083130008AC00840A0008AD00840A51
:101100000008AE00840A0008AF00B4002E08B30047
:101110002D08B2002C08B1000330B500B6018A11C9
:101120000313DB258A1503172C3003130C1E962896
:1011300099000317A20A0D2803132D080317D600E0
:1011400003132C080317D5008A1103135F218A1596
:1011500077080317AC007808AD007908AE007A086C
:10116000AF00B4002E08B3002D08B2002C08B10067
:101170000130B500B6018A110313DB258A152C3026
:101180000C1EC02899000317D60103132E0803175D
:10119000D5008A1103135F218A1577080317AC0065
:1011A0007808AD007908AE007A08AF00B4002E08C8
:1011B000B3002D08B2002C08B1000130B500B60113
:1011C0008A110313DB258A152C300C1EE5289900A3
:1011D0000030271801300317D601D5008A110313F8
:1011E0005F218A1577080317AC007808AD007908ED
:1011F000AE007A08AF00B4002E08B3002D08B2008C
:101200002C08B1000130B500B6018A110313DB25AB
:101210008A1523300C1E0A2999008A11EF208A159D
:1012200004300317AC008A110313F5208A15F80166
:101230000930F70023308400831778088A111320BF
:101240008A158000F80A840AF70B1D29013003175C
:10125000D6002330D5008A11031316218A150430D5
:101260000317AC00FA30D9008A11031394208A15B1
:101270000317AC0B322903130800DB01DE01DD018B
:10128000DF0132300317D9008A11031394208A1525
:1012900024300C1E4929990000308C1A0130003A84
:1012A0000319382B8A1154218A157808DC005C0850
:1012B0002A3C031D2D2BDB015F083F3C031C8229C8
:1012C0008C1C65290130DF078C108C1E812942306F
:1012D000F700F70B69290000A0305B078400831337
:1012E000EF010408EE006F10831B6F148A11542164
:1012F0008A156E08840083136F188317780880009E
:10130000DB0A5C29A0305B078400831380010B0893
:10131000F7008B1303178D012A308C0083168C1372
:101320000C1555308D00AA308D008C148C18962920
:101330000C117708831203138B044230F700F70B6C
:101340009F2900000130E000D701DB016008403C2C
:10135000031CD829A0305B07840083130008D70042
:101360000B08F7008B13600803178D000313570851
:1013700003178C0083168C130C1555308D00AA3082
:101380008D008C148C18C2290C117708831203135A
:101390008B044230F700F70BCB290000E00ADB0A90
:1013A0005708233C031DD7290130E100D829A6297D
:1013B00001300317D9008A11031394208A150317EB
:1013C000A501A4014830A3008530A200A901A8010D
:1013D000A701A601AA01AE01AD01AC01AB01AF01AD
:1013E0002F08403C031C2B2B2F088D0083168C13D9
:1013F0000C1483120C080313D70057082F3C031852
:10140000672A5708393C031C672A303057020317F4
:10141000D601D5008A1103135F218A157A080317B4
:10142000A9007908A8007808A7007708A60029086D
:10143000E5002808E4002708E3002608E200250864
:10144000E9002408E8002308E7002208E6008A11E2
:1014500003137E218A15831003172E08D8002D0848
:10146000D7002C08D6002B08D5007A08DC007908B4
:10147000DB007808DA007708D9008A110313F52118
:101480008A157A080317AE007908AD007808AC0019
:101490007708AB002508B3002408B2002308B10088
:1014A0002208B000B701B6012030B5008230B40088
:1014B0008A1103133B238A157A080317A5007908BC
:1014C000A4007808A3007708A200272B031357086D
:1014D0002C3C03196F2A5708233C031DD22A0317FB
:1014E0002A08083A031303197C2A013A03198E2AA1
:1014F000033A03199E2AA72A03172E08D8002D089D
:10150000D7002C08D6002B08D5008A110313072416
:101510008A157908AD007808AC00BD2A03172E089B
:10152000D8002D08D7002C08D6002B08D5008A112A
:10153000031307248A157808AE00BD2A2710031765
:101540002B1CA52A0313271403170313BD2A031703
:101550002A0DF700F70DFC30F70577082F3E8400C1
:1015600083132B088000840A2C088000840A2D082D
:101570008000840A2E08800003130317AE01AD011A
:10158000AC01AB01AA0AA501A4014830A300853033
:10159000A20003135708233C031DD12A03172B2B4A
:1015A0000313282B57082E3C031D282B0317B301C8
:1015B000B201B1017F30B0002508B7002408B600A1
:1015C0002308B5002208B4008A11031328248A15C1
:1015D0000318EC2A031D1E2B03172508E500240819
:1015E000E4002308E3002208E200E901E8012030DA
:1015F000E7008230E6008A1103137E218A15031763
:101600002E08B3002D08B2002C08B1002B08B00042
:101610007A08B7007908B6007808B5007708B400F2
:101620008A1103133B238A157A080317AE00790841
:10163000AD007808AC007708AB000313CD3003177A
:10164000A500CC30A4004C30A3007B30A2000313D3
:101650000317AF0AF029322B0313610B302B312B08
:10166000003003170313610B382BA7102715792BB4
:101670001330F700F70B3A2B3D2BDD0A0319DE0A76
:101680005E08F53C0318782BFF3A031D4B2B5D08D1
:10169000183C0318782B00200430EC00FA300317B4
:1016A000D9008A11031394208A15EC0B4E2BDE010E
:1016B000DD0103300317AC008A110313F5208A15EE
:1016C000F8010A30F70062308400831378088A1129
:1016D00020208A158000F80A840AF70B662B03176E
:1016E000D6016230D5008A11031316218A15772B93
:1016F0004C298A155F2F5B08003A03199E2B013A8B
:101700000319C52B033A0319E02B013A0319FB2BEC
:10171000073A0319182C013A03193D2C033A03190F
:10172000622C013A0319872C0F3A0319AE2C013AA7
:101730000319DC2C033A0319032D2A2DEB01EC01CC
:101740005C30840083136B0884076C088A112E2098
:101750008A15800000380319B02BEC0AEB0AA02B85
:101760003208EA003108E9003008E8002F08E700F5
:101770000A30D400D730D3002330D2007830D100E3
:101780006430D5000230D6002A2DEB01EC015C302C
:10179000840083136B0884076C088A1136208A152D
:1017A000800000380319D72BEC0AEB0AC72B360848
:1017B000EA003508E9003408E8003308E7002A2D7C
:1017C000EB01EC015C30840083136B0884076C0828
:1017D0008A113E208A15800000380319F22BEC0A8A
:1017E000EB0AE22B3A08EA003908E9003808E80079
:1017F0003708E7002A2DEB01EC015C3084008313ED
:101800006B0884076C088A1147208A15800000380D
:1018100003190D2CEC0AEB0AFD2B3E08EA003D08EB
:10182000E9003C08E8003B08E7000A30D5002A2D13
:10183000EB01EC015C30840083136B0884076C08B7
:101840008A114E208A158000003803192A2CEC0AD0
:10185000EB0A1A2C4208EA004108E9004008E800B7
:101860003F08E7006F30D4001230D3000330D200BD
:101870007530D1000330D6002A2DEB01EC015C302D
:10188000840083136B0884076C088A1155208A151D
:101890008000003803194F2CEC0AEB0A3F2C460855
:1018A000EA004508E9004408E8004308E70017306B
:1018B000D400B730D3005130D2007130D1000430A1
:1018C000D6002A2DEB01EC015C30840083136B08F9
:1018D00084076C088A115C208A158000003803197F
:1018E000742CEC0AEB0A642C4A08EA004908E90067
:1018F0004808E8004708E7006F30D4001230D300F2
:101900000330D2007530D1000330D6002A2DEB0110
:10191000EC015C30840083136B0884076C088A1127
:1019200064208A15800000380319992CEC0AEB0A10
:10193000892C4E08EA004D08E9004C08E8004B08E5
:10194000E7006430D5000A30D400D730D30023300C
:10195000D2007830D1000230D6002A2DEB01EC0104
:101960005C30840083136B0884076C088A116B2039
:101970008A15800000380319C02CEC0AEB0AB02C41
:10198000D6012D080317D60003132C080317D50022
:101990008A1103135F218A157A08EA007908E900A1
:1019A0007808E8007708E700D401D301D2017F303E
:1019B000D100C830D5002A2DEB01EC015C30840049
:1019C00083136B0884076C088A1179208A158000BC
:1019D00000380319EE2CEC0AEB0ADE2C0317D601B3
:1019E00003132E080317D5008A1103135F218A15EC
:1019F0007A08EA007908E9007808E8007708E70043
:101A00000230D5002A2DEB01EC015C3084008313F9
:101A10006B0884076C088A1188208A1580000038BA
:101A20000319152DEC0AEB0A052D0030271801309B
:101A30000317D601D5008A1103135F218A157A088E
:101A4000EA007908E9007808E8007708E700013043
:101A5000D5002A2D8A11EF208A150317AC018A11AF
:101A60000313F5208A150317D6015C30D5008A11BF
:101A7000031316218A1540300317AC008A11031393
:101A8000F5208A156A080317B400031369080317C1
:101A9000B300031368080317B200031367080317A2
:101AA000B100031356080317B5000130B6008A11C0
:101AB0000313DB258A156A08AB006908AA006808C9
:101AC000A9006708A8000800CF0A0319D00A40300F
:101AD000E0006008E1001030600761020318802D0B
:101AE00061080317AC008A110313F5208A15203012
:101AF0000317D8008A110313FD208A15E10A6B2D04
:101B000060080317AC008A110313F5208A155408E6
:101B1000DF005308DE005208DD005108DC00DB085E
:101B20000319CE2D0317B301B201B101B0010313A4
:101B30005F080317B70003135E080317B60003130B
:101B40005D080317B50003135C080317B4008A117E
:101B5000031328248A15031CCE2D5F080317E50004
:101B600003135E080317E40003135D080317E30083
:101B700003135C080317E200E901E8018030E70085
:101B80007F30E6008A1103137E218A157A08DF0070
:101B90007908DE007808DD007708DC000317D6013D
:101BA000031355080317D5008A1103135F218A1503
:101BB0002B080317B30003132A080317B2000313FB
:101BC00029080317B100031328080317B0007A0887
:101BD000B7007908B6007808B5007708B4008A1114
:101BE000031328248A150318F72D031D682ED00827
:101BF000031DFE2D4F081E3C03183C2E5F080317E3
:101C0000E50003135E080317E40003135D080317E0
:101C1000E30003135C080317E200E901E801203048
:101C2000E7008230E6008A1103137E218A158310B3
:101C30002B080317D80003132A080317D700031330
:101C400029080317D600031328080317D5007A08BC
:101C5000DC007908DB007808DA007708D9008A11FF
:101C60000313F5218A157A08AB007908AA007808D1
:101C7000A9007708A800682E83102B080317D80046
:101C800003132A080317D700031329080317D600E4
:101C9000031328080317D50003135F080317DC009C
:101CA00003135E080317DB0003135D080317DA0054
:101CB00003135C080317D9008A110313F5218A1551
:101CC0007A08AB007908AA007808A9007708A8006C
:101CD0002B080317B30003132A080317B2000313DA
:101CE00029080317B100031328080317B000B70130
:101CF000B601B501B4018A11031328248A15031C07
:101D0000852EAB01AA01A901A8010317D60103136F
:101D100055080317D5008A1103135F218A157A0825
:101D20000317B3007908B2007808B1007708B00053
:101D300003132B080317B70003132A080317B60071
:101D4000031329080317B500031328080317B40069
:101D50008A11031328248A15031CC02E0317D601E9
:101D6000031355080317D5008A1103135F218A1541
:101D70007A08AB007908AA007808A9007708A800BB
:101D800032300317D9008A11031394208A152B08C7
:101D90000317B40003132A080317B3000313290819
:101DA0000317B200031328080317B10003135608E2
:101DB0000317B5000130B6008A110313DB258A151D
:101DC00032300317D9008A11031394208A150800B2
:101DD000840183131F308305713083168F000F0831
:101DE0008312A6010C3083169900A230980090301F
:101DF000831298002710A7102711A7112716AB01EF
:101E0000AA01A901A801AD01AC010130AE00D001C9
:101E1000CF01D401D301D201D101D5010230D600C6
:101E2000D901D8010317870188019C019D019E01FA
:101E300003139F121F130030831691009701073080
:101E40009C008312A001A101AF01B001B101B20158
:101E5000B301B401B501B601B701B801B901BA01C6
:101E6000BB01BC01BD01BE01BF01C001C101C20176
:101E7000C301C401C501C601C701C801C901CA0126
:101E8000CB01CC01CD01CE01713083168F00003023
:101E90008500071087107830F8000638831292000A
:101EA000FA30831692008A118312C5288A158A1186
:101EB00039218A15DA012719602F071D3D295B2F6B
:101EC0005A08DB007B23271DD62F0719C22F5A087B
:101ED000DB002B08DF002A08DE002908DD002808C7
:101EE000DC008A11482F8A1550300317D9008A1157
:101EF000031394208A15DA0A5A080A3C031CDA01F3
:101F0000271E862F5A08DB007B238B2F2716DA012A
:101F10005A08DB007B230719C22FCF0A0319D00A06
:101F200032300317D9008A11031394208A15D00880
:101F3000031D9E2F4F081E3C0318A42FA7158A11BE
:101F400039218A15D001CF01A71DC12F071AC02F33
:101F5000CF0A0319D00A32300317D9008A110313AC
:101F600094208A15D008031DB92F4F08193C031877
:101F7000BF2F002027128A1139218A15A711A62FF9
:101F8000A42F8B2FD001CF018719CB2F271ECB2F4A
:101F9000DB016425C42FD001CF01071AD52F271EDE
:0E1FA000D52F0130DB006425CD2F632F6300A9
:02400E00E43C90
:00000001FF
;PIC16F913
;CRC=BBD5  CREATED="08-Feb-19 21:58"
