:100000000B308A00102B0000FF00030E8301A100BB
:100010007F08A0000A08A7008A01A00E0408A20019
:100020007708A3007808A4007908A5007A08A6003C
:10003000831383120B1E1E288B182F28220884007E
:100040002308F7002408F8002508F9002608FA001C
:1000500027088A00210E8300FF0E7F0E09008A11F7
:100060003128AA0A0319AB0A2A0B3C28AB08031D46
:100070003C288F018E015F282A08023C031D5F285F
:10008000AB08031D5F2844280C1C4F284230F700A2
:10009000F70B482800000C10AD01AC015B280F08DD
:1000A000FA000E08F7000F087A02031D4F287708A0
:1000B000AC007A08AD002E11AB01AA012E1401305C
:1000C000AF00F8008B108A111E28713083168F0044
:1000D000B03087007830F800063883129200FA308A
:1000E000831692003530831290000B16831601138D
:1000F000C03083128B049F121F13003083169100AF
:100100001F169F161F1383129F171F148A155A2B31
:100110008E30F70003173908F8003808F900FA01A3
:10012000F808031D9D287908F800F9010830F70246
:10013000F808031D9D28F701A5280310F81BA42823
:10014000F90DF80DF7039D28F813031308000317A2
:10015000570803191829DF005B0803191829DF075E
:100160000318B9287F30DF02031C18290319182946
:10017000BD288130DF07031818295F08F700F80150
:10018000F901FA015808E300E3175908E2005A0898
:10019000E1001830DF00E001611CE6285E08FA0784
:1001A000031CD828F90A031DD828F80A0319E017F8
:1001B0005D08F907031CDF28F80A0319E0175C083B
:1001C000D900D9175908F8070318E017E00DF80C03
:1001D000F90CFA0CE30CE20CE10C0310DF0BCB285A
:1001E0000130F70703181829F81BFD28E30DFA0D55
:1001F000F90DF80DF70303191829E31F0E29FA0A60
:10020000031D0E29F90A031D0E29F80A031D0E29E4
:10021000F80CF90CFA0CF70A031918295808E00031
:100220005C08E006E01F1629F8171C29F8131C29A2
:10023000F701F801F901FA01031308008030831C6B
:1002400024290317DC0603130317E101E201580810
:10025000E0005C08E00657080319122ADF00F700E7
:100260005B0803191B2ADF020319B729031C752930
:100270005C08E500E5175D08E4005E08E300E201C4
:100280000310E50CE40CE30CE20CDF0B3F29E01F4C
:100290004C2961142F2A61105F1061165A308400B6
:1002A0008317442A6112E01B5F295F1C6A29E50C51
:1002B000E40CE30CE20CF70A03192A2A6A29E51B6D
:1002C0006D290310E20DE30DE40DE50DF7030319AD
:1002D0002A2A5F296117D72961135808E000E01F17
:1002E0007329E517232AE513232A5B08DF00F700AB
:1002F0005708DF025808E500E5175908E4005A08D6
:10030000E300E2010310E50CE40CE30CE20CDF0B6C
:100310008129E01F8E29E1142F2AE1105F10E116D8
:100320005E3084008317442AE112E01BA1295F1C80
:10033000AC29E50CE40CE30CE20CF70A03192A2AB9
:10034000AC29E51BAF290310E20DE30DE40DE50D2B
:10035000F70303192A2AA129E117D729E1135C0819
:10036000E000E01FB529E517232AE513232A5C08DE
:10037000E500E5175D08E4005E08E300E01FC4291E
:10038000E51361152F2A6111E2015F105A308400D4
:100390008317442AE01BED295808E0005F1CD72989
:1003A000E50CE40CE30CE20CF70A03192A2AE21F1D
:1003B000E829E30A031DE829E40A031DE829E50A00
:1003C000031DE829E50CE40CE30CF70A03192A2ABB
:1003D000611B6C29E11BAE290C2A8030E506E51F64
:1003E000F5292F2A5C08E000022A5808E000E508F9
:1003F000031D022AE408031D022AE308031D022A42
:10040000F701232AE51B0C2A0310E20DE30DE40D8E
:10041000E50DF70B022A2A2AE01F102AE517232AE6
:10042000E513232A5B08F7005C08E5005D08E4009B
:100430005E08E300232A5708F7005808E50059082A
:10044000E4005A08E3006508F8006408F90063084E
:10045000FA00622AF701F801F901FA01622AE201C1
:10046000E309E409E509E209E20A031D3D2AE30A7A
:10047000031D3D2AE40A0319E50A61184B29E11816
:100480008D296119C329F2290008E307031C4E2AAC
:10049000E40A031D4E2AE50A03195F1484030008C9
:1004A000E407031C562AE50A03195F1484030008B5
:1004B000801F803AE50703185F14611A5229E11A78
:1004C0009429CA29031308000317380803192A2B93
:1004D000C4003C0803192A2BC402031C742A7F3071
:1004E000C40703182A2B7A2A8130C402031C2A2B42
:1004F00003192A2B4408F700F801F901FA01C30196
:100500003908C200C2173A08C1003B08C0001930C0
:10051000C4003F08C00203189D2A0130C10203181D
:100520009D2AC20203189D2AC30203189D2AC30AEA
:10053000C20AC10A3F08C007CF2A3E08C1020318F9
:10054000B82A0130C2020318B82AC3020318B82A15
:10055000C30AC20A3E08C1073F08C007031CCF2ACE
:10056000C10A031DCF2AC20A031DCF2AC30ACF2AFC
:100570003D088038C2020318CE2A0130C302031896
:10058000CE2AC30A3D088038C2073E08C107031CB3
:10059000AC2AC20A031DAC2AC30AAC2A7A14C40BC3
:1005A000D22ADD2A0310C00DC10DC20DC30D0310E8
:1005B000FA0DF90DF80DC50D892A451CE52A031021
:1005C000F80CF90CFA0CC50CE82AF70303192A2BCE
:1005D000C51B112B0310C00DC10DC20DC30D3F086B
:1005E000C0020318FD2A0130C1020318FD2AC2020D
:1005F0000318FD2AC302031C202B3E08C102031866
:10060000082B0130C2020318082BC302031C202B45
:100610003D088038C2020318112B0130C302031CAD
:10062000202BFA0A031D202BF90A031D202BF80AA0
:10063000031D202BF70A03192A2BF80CF90CFA0CCE
:100640003908C4003D08C406C41F282BF8172E2BF8
:10065000F8132E2BF701F801F901FA010313080032
:100660008E30F70003173808F7023908F9003A0806
:10067000F800F917F7080319482B0310F908031DB0
:10068000442BF8080319482BF90CF80CF70B3D2BF9
:10069000B91F4F2BF809F909F80A0319F90A0313CE
:1006A000080003175408DB005808DB06DB1F5D2B2E
:1006B00003110310D41B0314902B5408DB005708BC
:1006C000DC005308DC0203196B2BDB1F902B0308A3
:1006D000013A8300902B5808DC005408DC0203190F
:1006E000772BDB1F902B0308013A8300902B5908CE
:1006F000DC005508DC020319832BDB1F902B030859
:10070000013A8300902B5A08DC005608DC020319DA
:100710008F2BDB1F902B0308013A8300902B0310D3
:10072000031308000317AE01AD014830AC0085305B
:10073000AB00B201B101B001AF01B301B701B60125
:10074000B501B40101300313C8004808403C031C44
:10075000C82C480803178D0083168C130C148312C1
:100760000C080313CB004B082F3C0318152C4B0827
:10077000393C031C152C30304B020317B901B8006B
:10078000031388207A080317B2007908B1007808AB
:10079000B0007708AF003208DA003108D90030081D
:1007A000D8002F08D7002E08DE002D08DD002C0809
:1007B000DC002B08DB000313A72083100317370886
:1007C000DA003608D9003508D8003408D7007A088E
:1007D000DE007908DD007808DC007708DB00031311
:1007E0001E217A080317B7007908B6007808B5000B
:1007F0007708B4002E08BB002D08BA002C08B900F9
:100800002B08B800BF01BE012030BD008230BC0003
:10081000031364227A080317AE007908AD00780844
:10082000AC007708AB00C52C03134B082C3C031914
:100830001D2C4B08233C031D762C03173308083C62
:10084000031D302C3708BB003608BA003508B90044
:100850003408B800031330237808C600642C03174B
:100860003308093C031D422C3708BB003608BA0088
:100870003508B9003408B800031330237808C700DE
:10088000642C031733080A3C031D4F2C0313AE13CB
:100890000317341C4E2C0313AE170317632C330DB0
:1008A000F700F70DFC30F70577084F3E84008313FF
:1008B00034088000840A35088000840A36088000E5
:1008C000840A3708800003130317B701B601B50186
:1008D000B401B30AAE01AD014830AC008530AB00C5
:1008E00003134B08233C0319C82CC62C4B082E3C81
:1008F000031DC62C0317D601D501D4017F30D300C8
:100900002E08DA002D08D9002C08D8002B08D700B3
:100910000313512303188E2C031DBC2C03172E0820
:10092000DA002D08D9002C08D8002B08D700DE01EA
:10093000DD012030DC008230DB000313A720031729
:100940003708BB003608BA003508B9003408B800CB
:100950007A08BF007908BE007808BD007708BC009F
:10096000031364227A080317B7007908B6007808E1
:10097000B5007708B4000313CD300317AE00CC30B8
:10098000AD004C30AC007B30AB000313C80AA52B84
:1009900008002F308400831700080319DC2C023074
:1009A000F800F701F70BD22CF80BD12C9730F70099
:1009B000F70BD82C800BCF2C080007140711031756
:1009C000B108031DE62C7030B307EA2C310BEA2C7A
:1009D000F030B307B501B401B508031D202D34086C
:1009E0000F3C031C202DB60133088039B700370DAA
:1009F000B601B701031836143618012D03138710FA
:100A00000317361C062D0313871403170630F7004F
:100A1000F70B082D0000031387110630F700F70BC2
:100A20000F2D000087150630F700F70B152D00007D
:100A300003100317B20DB30DB40A0319B50AEC2C59
:100A40000313071507100630F700F70B252D0000DC
:100A50000714080003172E080313B80003172D0806
:100A60000313B70003172C080313B60003172B0852
:100A70000313B50001300317AF000313C92438086E
:100A80000317BB00031337080317BA000313360814
:100A90000317B900031335080317B80003133023F5
:100AA00079080317B0007808AF003008B2002F08AB
:100AB000B100031347080317B300B308031D912DBA
:100AC0003208B9003108B8000313882083107A086F
:100AD0000317DA007908D9007808D8007708D7001A
:100AE00003135A080317DE00031359080317DD0028
:100AF000031358080317DC00031357080317DB0020
:100B000003131E217A080317BB007908BA0078087E
:100B1000B9007708B800031330237908F62DF62DB5
:100B20000317330BA02D0310310DF900320DFA001D
:100B30007908F8007A08F9000313F62DF62D03174B
:100B40003308023C031DF72D8310031352080317CB
:100B5000DA00031351080317D900031350080317D1
:100B6000D80003134F080317D700031356080317C1
:100B7000DE00031355080317DD00031354080317A1
:100B8000DC00031353080317DB0003131E2177084F
:100B90000317B4007808B5007908B6007A08B700E2
:100BA0003208B9003108B8000313882083140317F2
:100BB0003708DA003608D9003508D8003408D700DD
:100BC0007A08DE007908DD007808DC007708DB00B1
:100BD00003131E217A080317BB007908BA007808AE
:100BE000B9007708B8000313302379080317790890
:100BF000B9007808B800031388207A08BC00790887
:100C0000BB007808BA007708B90002300317AF00BC
:100C10000313C92438080317BB000313370803174D
:100C2000BA00031336080317B90003133508031776
:100C3000B800BF01BE014830BD008530BC000313C1
:100C400064220317DA01F030D9007F30D8008A30EF
:100C5000D7007A08DE007908DD007808DC00770824
:100C6000DB000313A7207A08B8007908B7007808DA
:100C7000B6007708B5003C080317BB0003133B0818
:100C80000317BA0003133A080317B900031339080E
:100C90000317B800BF01BE014830BD008530BC005D
:100CA000031364220317DA01F030D9007F30D80033
:100CB0008A30D7007A08DE007908DD007808DC0089
:100CC0007708DB000313A7207A08BC007908BB0073
:100CD0007808BA007708B90002300317AF00031391
:100CE000C92438080317BB00031337080317BA00D9
:100CF000031336080317B900031335080317B800A8
:100D00000313302379080317B0007808AF00B1014E
:100D10003008B3002F08B2000313DD243C0803178A
:100D2000BB0003133B080317BA0003133A08031769
:100D3000B900031339080317B800031330237908E7
:100D40000317B0007808AF000130B1003008B300DD
:100D50002F08B2000313DD240130F80008008C1EB8
:100D6000AF2E1808A8001A08F800A81CB92E1812EF
:100D70001816080008300317AC02031CCB2E2C30C9
:100D8000840083170310800C00080319CB2EC92E92
:100D90000000800BC82E03138A15052C0030F800C4
:100DA0001F08E33978049F004230F700F70BD62E76
:100DB00000009F149F18DA2E1E08FA0083161E08E2
:100DC00083120317B8007A08B900031388207A0841
:100DD000B8007908B7007808B6007708B500023087
:100DE0000317AF000313C92438080317BB0003130C
:100DF00037080317BA00031336080317B9000313A3
:100E000035080317B800BF01C030BE007F30BD00F9
:100E10008830BC000313642277080317AB007808FE
:100E2000AC007908AD007A08AE00DA002D08D900D0
:100E30002C08D8002B08D700DE01DD014830DC008B
:100E40008530DB000313A7207A08B8007908B700C3
:100E50007808B6007708B50002300317AF00031317
:100E6000C92438080317D600031337080317D50021
:100E7000031336080317D400031335080317D300F0
:100E8000031352080317DA00031351080317D9009C
:100E9000031350080317D80003134F080317D70094
:100EA00003135123031C5C2F5208B8005108B700EC
:100EB0005008B6004F08B50056080317D6000313B4
:100EC00055080317D500031354080317D400031360
:100ED00053080317D300031338080317DA0003136A
:100EE00037080317D900031336080317D800031374
:100EF00035080317D70003135123031C872F560807
:100F0000B8005508B7005408B6005308B5003508B6
:100F1000F7003608F8003708F9003808FA0008002A
:101000002C0DCD002D0DCE00CD0DCE0DFC30CD051F
:1010100083100317AE010F30AD004230AC004030FA
:10102000AB00B201B10103134E080317B000031364
:101030004D080317AF00831820283330840083172E
:10104000F701F801F901FA01B301B401B501B601E4
:101050003208310430042F0403195E282030B70011
:101060000310AB0DAC0DAD0DAE0DB30DB40DB50D44
:10107000B60D32083602031D472831083502031D1C
:10108000472830083402031D47282F083302031C69
:1010900058282F08B3023008031C300FB40231085F
:1010A000031C310FB5023208031C320FB6020314C1
:1010B000F70DF80DF90DFA0DB70B30283308800045
:1010C000840A34088000840A35088000840A3608BF
:1010D000800078080313CE007708CD000130031795
:1010E000AF008A110313C9248A156A08C000690871
:1010F000BF006808BE006708BD004E080317B900AE
:1011000003134D080317B8008A11031388208A15AA
:1011100040080317DA0003133F080317D90003132D
:101120003E080317D80003133D080317D7007A08B9
:10113000DE007908DD007808DC007708DB008A1122
:101140000313A7208A157A08C0007908BF00780821
:10115000BE007708BD00831044080317DA000313AC
:1011600043080317D900031342080317D8000313D9
:1011700041080317D700DE01DD012030DC0082309A
:10118000DB008A1103131E218A1540080317D600BD
:1011900003133F080317D50003133E080317D400B9
:1011A00003133D080317D3007A08DA007908D90041
:1011B0007808D8007708D7008A11031351238A15BD
:1011C000031C2529831444080317DA00031343087A
:1011D0000317D900031342080317D800031341086B
:1011E0000317D700DE01DD012030DC008230DB0098
:1011F0008A1103131E218A157A080317D60079086D
:10120000D5007808D4007708D300031340080317EB
:10121000DA0003133F080317D90003133E0803172E
:10122000D80003133D080317D7008A110313512375
:101230008A15031C25294008C4003F08C3003E0846
:10124000C2003D08C100B4014E29B40A3408323C42
:1012500003183329B4014008C4003F08C3003E0806
:10126000C2003D08C100AC08031D4629AD08031D9E
:101270004629C001BF01BE01BD014008C4003F08AE
:10128000C3003E08C2003D08C1004E294408C0000A
:101290004308BF004208BE004108BD003D08F700FA
:1012A0003E08F8003F08F9004008FA008A156B2D47
:1012B0000317CA01C901C801C701CE01CD01CC0184
:1012C000CB01D201D101D001CF0183143E08DA0055
:1012D0003D08D9003C08D8003B08D7004208DE0092
:1012E0004108DD004008DC003F08DB008A110313E1
:1012F0001E218A157A08F2007908F1007808F000BA
:101300007708EF0072080317CA007108C900700857
:10131000C80003136F080317C7008316031364087C
:1013200083120317D600831603136308831203176F
:10133000D50083160313620883120317D4008316A3
:101340000313610883120317D300DA01D901D8010E
:10135000D7018A11031351238A15031DCF29831046
:101360007E080317DA007D08D9007C08D8007B08C6
:10137000D7007208DE007108DD007008DC0003137E
:101380006F080317DB008A1103131E218A157A08E0
:10139000FE007908FD007808FC007708FB00831444
:1013A00072080317DA007108D9007008D800031317
:1013B0006F080317D7007608DE007508DD00740893
:1013C000DC007308DB008A1103131E218A157A08DA
:1013D0000317CE007908CD007808CC007708CB0041
:1013E0007208F6007108F5007008F40003136F0826
:1013F000F30003173208DA003108D9003008D800AA
:101400002F08D7004A08DE004908DD004808DC0044
:101410004708DB008A110313A7208A1577080317F2
:10142000D3007808D4007908D5007A08D6003608A9
:10143000DA003508D9003408D8003308D7007E0810
:10144000DE007D08DD007C08DC007B08DB008A1103
:101450000313A7208A15831003175608DA005508CE
:10146000D9005408D8005308D7007A08DE0079085C
:10147000DD007808DC007708DB008A1103131E21E9
:101480008A1577080317D3007808D4007908D500A7
:101490007A08D6003A08DA003908D9003808D800A6
:1014A0003708D7004E08DE004D08DD004C08DC0090
:1014B0004B08DB008A110313A7208A15831003173A
:1014C0005608DA005508D9005408D8005308D70048
:1014D0007A08DE007908DD007808DC007708DB0098
:1014E0008A1103131E218A15831003174608DA0098
:1014F0004508D9004408D8004308D7007A08DE0020
:101500007908DD007808DC007708DB008A11031316
:101510001E218A157A080317D2007908D1007808AD
:10152000D0007708CF005208D6005108D5005008E7
:10153000D4004F08D300031352080317DA00031333
:1015400051080317D900031350080317D8000313D9
:101550004F080317D7008A11031351238A15031C60
:10156000C92A52080317D200031351080317D100E8
:10157000031350080317D00003134F080317CF00BD
:1015800083160313E401E301E2017F30E100032B42
:10159000831256080317D600031355080317D50006
:1015A000031354080317D400031353080317D3007D
:1015B0005208DA005108D9005008D8004F08D70067
:1015C0008A11031351238A15031CFE2A5608031798
:1015D000D200031355080317D1000313540803174F
:1015E000D000031353080317CF0083160313E4013D
:1015F000E301E2017F30E100032B83128316E40153
:10160000E301E201E101831203174F08F7005008DC
:10161000F8005108F9005208FA0003138A15852FC3
:10162000840183131F308305713083168F000F08E8
:101630008312A8010C3083169900A23098009030D4
:1016400083129800AE10AF01B301B201B101B00135
:10165000AE11B4012E12C001BF01BE01BD01C40113
:10166000C301C201C101CE01CD01AE13F201F101EE
:10167000F001EF01F601F501F401F301FE01FD01B6
:10168000FC01FB018316E401E301E201E1018312A5
:101690000317870188019C019D019E0103139F127E
:1016A0001F13003083169100970107309C008A11A8
:1016B000831265288A15C9018A1192238A15CB01E4
:1016C000AE12AB01AA01CA012E138316E501E9018E
:1016D000E801E701E601EA01EB01EC01ED01EF01B0
:1016E000EE0183120317A001211083160313851145
:1016F0008312851552080317AE0003135108031710
:10170000AD00031350080317AC0003134F08031771
:10171000AB008A1103132A258A158316EA01831266
:10172000871A812C52080317AE00031351080317C0
:10173000AD00031350080317AC0003134F08031741
:10174000AB008A1103132A258A158316EB01831235
:10175000871A812C00308C1A0130003A0319782C3A
:101760008A11AF268A157808CC004C08243C031D4A
:10177000D32BC8014808403C031CD32B480803174F
:101780008D0083168C130C1483120C080313CB00EA
:101790004230F700F70BCA2B00004B080C1ECE2B73
:1017A0009900C80ABA2B4C082A3C031D722CCA01A6
:1017B00083166B083F3C031C0D2C83128C1CE52BFD
:1017C00001308316EB0783128C108C1E0B2CA0307B
:1017D0004A07840083130317AE010408AD002E10DE
:1017E000831B2E148A110313AF268A1503172D08A5
:1017F000840083132E188317780880000230AB0012
:10180000F830AC008A110313BA2E8A150317AB0BFC
:10181000002C0313CA0AD82B8316A03083124A0760
:101820008400831380010B08F7008B1303178D01CD
:101830002A308C0083168C130C1555308D00AA307D
:101840008D008C148C18222C0C1177088312031332
:101850008B0401300317AF008A110313C9248A15C2
:101860000130C800CB014808403C031C682C013003
:101870004802A03E840083130008CB000B08F70049
:101880008B13480803178D0003134B0803178C00B4
:1018900083168C130C1555308D00AA308D008C14D6
:1018A0008C18502C0C117708831203138B044230D0
:1018B000F700F70B592C0000C80A4B08233C031D06
:1018C000672C01308316E500EA018312682C332C63
:1018D00001300317AF008A110313C9248A158A1136
:1018E00092238A158316650B792CEA018312812CC9
:1018F00083160C30F700F70B7B2C7E2C0000A72BF7
:10190000831200308C1A0130003A03199A2C0130EE
:101910000317AF008A110313C9248A158A11AF2651
:101920008A157808A900AE148316EF01EE011A306B
:10193000ED0083128C1CB82C8316EA0AEC0AEE0A1E
:101940000319EF0AED0A83128C100317211C83166A
:1019500003136A08013C0318B62C8312AE1DB22C87
:101960008316B62CAE15AF01B82C831683128C10DB
:1019700083166A08053C0318D72C8312AF08031D91
:10198000D22C8316EA018312C001BF01BE01BD0142
:10199000C401C301C201C101AF01AD01AC012E15EB
:1019A000AE12D52C8316EA018312AE1183166C0891
:1019B000013C0318E82C83122E1DE02C8316E82C22
:1019C0008316EC010613403083128606F02C831632
:1019D00083122E1DF02C8316EC01061383120613BE
:1019E00083166F08013C0318012DFF3A031DFC2CE0
:1019F0006E08583C0318012D8312AE108316EF01B8
:101A0000EE018312AE180A2DAE1A0A2D46084502C1
:101A10000318122DAE18152DAE1A152D46084502C5
:101A20000318152D4608C500582DAE18202DAE1EE2
:101A3000202D46084502031C202D4608C500582DC0
:101A4000AE182C2DAE1E2C2D4608450203182C2D49
:101A500003172114572D0313AE1C372DAE1A372D43
:101A600029084502031C372D2908C500582DAE1C36
:101A7000422DAE1A422D290845020318422D29088D
:101A8000C500582DAE1C4D2DAE1E4D2D290845020A
:101A9000031C4D2D2908C500582DAE1C582DAE1E17
:101AA000582D290845020318582D03172114031334
:101AB0000317211C5E2D03132E17031703132E1F6C
:101AC000662D83160511831205156A2D83160511DF
:101AD0008312051100287A08B3007908B20078084B
:101AE000B1007708B000AE1ABD2EFE01FD01FC0169
:101AF000FB018316E401E301E201E1018613831295
:101B00008613033045020317B901B8008A11031385
:101B100088208A157A080317D6007908D500780836
:101B2000D4007708D300031333080317DA00031334
:101B300032080317D900031331080317D800031321
:101B400030080317D7008A11031351238A1503188D
:101B5000AB2D031DEC2D033045020317B901B8006E
:101B60008A11031388208A157A080317D60079088A
:101B7000D5007808D4007708D3000313330803177F
:101B8000DA00031332080317D900031331080317CF
:101B9000D800031330080317D7008A110313512309
:101BA0008A150318D72D0319D72D2E1EEB2DCA0A1F
:101BB00052080317AE00031351080317AD000313B7
:101BC00050080317AC0003134F080317AB008A112A
:101BD00003132A258A15F22D2E138316051183125D
:101BE00005112E124A08053C0318FF2D0317211C6E
:101BF000FB2D0313FF2D40300313AE06CA0103175C
:101C0000A501A401A301A2018A110313CE268A15FE
:101C10007A080317A5007908A4007808A3007708BC
:101C2000A2000330031345020317B901B8008A115B
:101C3000031388208A1533080317D60003133208CC
:101C40000317D500031331080317D400031330081A
:101C50000317D3007A08DA007908D9007808D80089
:101C60007708D7008A11031351238A15031C472EC6
:101C70002E1A472E03172508AE002408AD002308AE
:101C8000AC002208AB008A1103132A258A15033001
:101C900045020317B901B8008A11031388208A1579
:101CA0007A080317D6007908D5007808D400770899
:101CB000D300031333080317DA00031332080317A2
:101CC000D900031331080317D80003133008031792
:101CD000D7008A11031351238A150318712E031D8F
:101CE000732E2E1E9D2E033045070317B901B80031
:101CF0008A11031388208A1533080317D6000313AB
:101D000032080317D500031331080317D400031357
:101D100030080317D3007A08DA007908D900780868
:101D2000D8007708D7008A11031351238A150318A6
:101D30009B2E031DBC2E2E1EBC2E52080317D60050
:101D4000031351080317D500031350080317D400D9
:101D500003134F080317D3002508DA002408D9001D
:101D60002308D8002208D7008A11031351238A15AB
:101D70000318BB2E0319AE16BB2FAE1EBB2F831646
:101D80008613831286172E16CA0A4A08023C0318C5
:101D9000D22E0317211CCE2E0313D22E4030031354
:101DA000AE06CA010317A901A801A701A6018A115D
:101DB0000313CE268A157A080317A9007908A8000C
:101DC0007808A7007708A6008310031352080317AA
:101DD000DA00031351080317D9000313500803173F
:101DE000D80003134F080317D700DE01DD01DC0123
:101DF0008030DB008A1103131E218A157A0803172D
:101E0000D6007908D5007808D4007708D3002908CF
:101E1000DA002808D9002708D8002608D7008A1138
:101E2000031351238A15031CA92F2E1CA82F2E1033
:101E30000317B901031345080317B8008A110313E8
:101E400088208A1577080317AB007808AC0079085A
:101E5000AD007A08AE0003135E080317B200031347
:101E60005D080317B10003135C080317B0000313E8
:101E70005B080317AF00031362080317B6000313D0
:101E800061080317B500031360080317B4000313B8
:101E90005F080317B300031366080317BA000313A0
:101EA00065080317B900031364080317B800031388
:101EB00063080317B7002E08BE002D08BD002C08CC
:101EC000BC002B08BB00031333080317C200031325
:101ED00032080317C100031331080317C0000313AE
:101EE00030080317BF0003136E080317C60003135F
:101EF0006D080317C50003136C080317C400031310
:101F00006B080317C300031358297A088316E900E6
:101F10007908E8007808E7007708E6006908831286
:101F20000317AE0083160313680883120317AD006E
:101F300083160313670883120317AC008316031379
:101F4000660883120317AB008A1103132A258A152A
:101F5000BB2F8316861383128613AE12FE01FD017A
:101F6000FC01FB018316E401E301E201E1018312BC
:101F700003172110031383166D08193C0318C72F8C
:101F8000ED01831245080C1EC32F9900831683129E
:101F90000317AA012A08A93C031CD52F5430F700C7
:101FA000F70BD02FD32FAA0ACA2F0130AF008A1106
:0A1FB0000313C9248A15902B630067
:02400E00E43F8D
:00000001FF
;PIC16F913
;CRC=B78B  CREATED="27-Feb-19 12:27"
