:100000000A308A00942A0000FF00030E8301A10039
:100010007F08A0000A08A7008A01A00E0408A20019
:100020007708A3007808A4007908A5007A08A6003C
:10003000831383120B1E1E288B182F28220884007E
:100040002308F7002408F8002508F9002608FA001C
:1000500027088A00210E8300FF0E7F0E09008A11F7
:100060003128AB0A2B0B37288F018E0162282B0811
:10007000023C031D62280F08FA000E08F7000F0863
:100080007A02031D3B287708AC007A08AD00AE0168
:10009000AF014A280C1C5E284230F700F70B4E28AF
:1000A0000000FF30AC07031CAD070030031801301F
:1000B000AE07003003180130AF070C10B501301146
:1000C000AB0130140130F8008B108A111E287130FA
:1000D00083168F00B03087007830F800063883121E
:1000E0009200FA30831692003530831290000B167E
:1000F00083160113C03083128B049F121F1300302C
:10010000831691001F169F161F1383129F171F142B
:100110008A15DA2A8E30F70003173808F8003708F6
:10012000F900FA01F808031D9F287908F800F90181
:100130000830F702F808031D9F28F701A7280310CD
:10014000F81BA628F90DF80DF7039F28F8130313E1
:1001500008000317560803191A29DE005A08031964
:100160001A29DE070318BB287F30DE02031C1A2978
:1001700003191A29BF288130DE0703181A295E08DF
:10018000F700F801F901FA015708E200E2175808F0
:10019000E1005908E0001830DE00DF01601CE828AB
:1001A0005D08FA07031CDA28F90A031DDA28F80AA1
:1001B0000319DF175C08F907031CE128F80A031983
:1001C000DF175B08D800D8175808F8070318DF179F
:1001D000DF0DF80CF90CFA0CE20CE10CE00C03104A
:1001E000DE0BCD280130F70703181A29F81BFF286A
:1001F000E20DFA0DF90DF80DF70303191A29E21FA4
:100200001029FA0A031D1029F90A031D1029F80AFA
:10021000031D1029F80CF90CFA0CF70A03191A2916
:100220005708DF005B08DF06DF1F1829F8171E29B3
:10023000F8131E29F701F801F901FA010313080068
:100240008030831C26290317DB0603130317E00104
:10025000E1015708DF005B08DF0656080319142A7E
:10026000DE00F7005A0803191D2ADE020319B92916
:10027000031C77295B08E400E4175C08E3005D08D1
:10028000E200E1010310E40CE30CE20CE10CDE0BF4
:100290004129DF1F4E296014312A60105E1060165C
:1002A000593084008317462A6012DF1B61295E1CC7
:1002B0006C29E40CE30CE20CE10CF70A03192C2A7C
:1002C0006C29E41B6F290310E10DE20DE30DE40D31
:1002D000F70303192C2A61296017D92960135708DD
:1002E000DF00DF1F7529E417252AE413252A5A08A1
:1002F000DE00F7005608DE025708E400E41758084D
:10030000E3005908E200E1010310E40CE30CE20C05
:10031000E10CDE0B8329DF1F9029E014312AE01065
:100320005E10E0165D3084008317462AE012DF1B62
:10033000A3295E1CAE29E40CE30CE20CE10CF70AE5
:1003400003192C2AAE29E41BB1290310E10DE20D9B
:10035000E30DE40DF70303192C2AA329E017D9298B
:10036000E0135B08DF00DF1FB729E417252AE41339
:10037000252A5B08E400E4175C08E3005D08E2005E
:10038000DF1FC629E4136015312A6011E1015E10F8
:10039000593084008317462ADF1BEF295708DF00F6
:1003A0005E1CD929E40CE30CE20CE10CF70A0319FA
:1003B0002C2AE11FEA29E20A031DEA29E30A031DA8
:1003C000EA29E40A031DEA29E40CE30CE20CF70A2B
:1003D00003192C2A601B6E29E01BB0290E2A8030DD
:1003E000E406E41FF729312A5B08DF00042A5708D6
:1003F000DF00E408031D042AE308031D042AE208C1
:10040000031D042AF701252AE41B0E2A0310E10D1F
:10041000E20DE30DE40DF70B042A2C2ADF1F122A4C
:10042000E417252AE413252A5A08F7005B08E4009C
:100430005C08E3005D08E200252A5608F70057082B
:10044000E4005808E3005908E2006408F800630873
:10045000F9006208FA00642AF701F801F901FA01CB
:10046000642AE101E209E309E409E109E10A031D63
:100470003F2AE20A031D3F2AE30A0319E40A60182F
:100480004D29E0188F296019C529F4290008E207D1
:10049000031C502AE30A031D502AE40A03195E14C0
:1004A00084030008E307031C582AE40A03195E14B6
:1004B00084030008801F803AE40703185E14601A62
:1004C0005429E01A9629CC2903130800031737088A
:1004D00003192C2BC3003B0803192C2BC302031C4C
:1004E000762A7F30C30703182C2B7C2A8130C30265
:1004F000031C2C2B03192C2B4308F700F801F901DE
:10050000FA01C2013808C100C1173908C0003A0811
:10051000BF001930C3003E08BF0203189F2A0130F4
:10052000C00203189F2AC10203189F2AC20203189F
:100530009F2AC20AC10AC00A3E08BF07D12A3D0845
:10054000C0020318BA2A0130C1020318BA2AC20233
:100550000318BA2AC20AC10A3D08C0073E08BF07ED
:10056000031CD12AC00A031DD12AC10A031DD12AA6
:10057000C20AD12A3C088038C1020318D02A0130AF
:10058000C2020318D02AC20A3C088038C1073D08BD
:10059000C007031CAE2AC10A031DAE2AC20AAE2A36
:1005A0007A14C30BD42ADF2A0310BF0DC00DC10D6E
:1005B000C20D0310FA0DF90DF80DC40D8B2A441C61
:1005C000E72A0310F80CF90CFA0CC40CEA2AF7031A
:1005D00003192C2BC41B132B0310BF0DC00DC10D11
:1005E000C20D3E08BF020318FF2A0130C0020318E3
:1005F000FF2AC1020318FF2AC202031C222B3D0856
:10060000C00203180A2B0130C10203180A2BC202D0
:10061000031C222B3C088038C1020318132B013025
:10062000C202031C222BFA0A031D222BF90A031D06
:10063000222BF80A031D222BF70A03192C2BF80C86
:10064000F90CFA0C3808C3003C08C306C31F2A2B58
:10065000F817302BF813302BF701F801F901FA01E4
:10066000031308008E30F70003173708F702380825
:10067000F9003908F800F917F70803194A2B031095
:10068000F908031D462BF80803194A2BF90CF80C3E
:10069000F70B3F2BB81F512BF809F909F80A03197A
:1006A000F90A0313080003175308DA005708DA069B
:1006B000DA1F5F2B03110310D31B0314922B530873
:1006C000DA005608DB005208DB0203196D2BDA1F33
:1006D000922B0308013A8300922B5708DB00530842
:1006E000DB020319792BDA1F922B0308013A8300EE
:1006F000922B5808DB005408DB020319852BDA1F04
:10070000922B0308013A8300922B5908DB0055080D
:10071000DB020319912BDA1F922B0308013A8300A5
:10072000922B0310031308000317AD01AC014830EE
:10073000AB008530AA00B101B001AF01AE01B2013A
:10074000B601B501B401B30101300313C50045087A
:10075000403C031CCA2C450803178D0083168C13DC
:100760000C1483120C080313C70047082F3C03180E
:10077000172C4708393C031C172C3030470203174D
:10078000B801B70003138A207A080317B10079086B
:10079000B0007808AF007708AE003108D900300803
:1007A000D8002F08D7002E08D6002D08DD002C0811
:1007B000DC002B08DB002A08DA000313A9208310D1
:1007C00003173608D9003508D8003408D700330895
:1007D000D6007A08DD007908DC007808DB007708AD
:1007E000DA00031320217A080317B6007908B50050
:1007F0007808B4007708B3002D08BA002C08B900B7
:100800002B08B8002A08B700BE01BD012030BC008B
:100810008230BB00031366227A080317AD00790803
:10082000AC007808AB007708AA00C72C0313470870
:100830002C3C03191F2C4708233C031D782C03175D
:100840003208083C031D322C3608BA003508B900BE
:100850003408B8003308B700031332237808C30004
:10086000662C03173208093C031D442C3608BA00D5
:100870003508B9003408B8003308B7000313322331
:100880007808C400662C031732080A3C031D512C5B
:10089000031330130317331C502C031330170317A3
:1008A000652C320DF700F70DFC30F70577084D3E4B
:1008B0008400831333088000840A34088000840A8B
:1008C00035088000840A3608800003130317B60138
:1008D000B501B401B301B20AAD01AC014830AB00BF
:1008E0008530AA0003134708233C0319CA2CC82CDF
:1008F00047082E3C031DC82C0317D501D401D30192
:100900007F30D2002D08D9002C08D8002B08D70042
:100910002A08D600031353230318902C031DBE2C62
:1009200003172D08D9002C08D8002B08D7002A0857
:10093000D600DD01DC012030DB008230DA00031359
:10094000A92003173608BA003508B9003408B800E2
:100950003308B7007A08BE007908BD007808BC00EB
:100960007708BB00031366227A080317B6007908DC
:10097000B5007808B4007708B3000313CD3003172F
:10098000AD00CC30AC004C30AB007B30AA00031380
:10099000C50AA72B08002E3084008317000803190E
:1009A000DE2C0230F800F701F70BD42CF80BD32C17
:1009B0009730F700F70BDA2C800BD12C08000830A9
:1009C0000317B802031CF02C38308400831703107F
:1009D000800C00080319F02CEE2C0000800BED2C8D
:1009E00003130800071407110317B008031DFB2C9D
:1009F0007030B207FF2C300BFF2CF030B207B4017F
:100A0000B301B408031D432D33080F3C031C432DD1
:100A1000B50132088039B600360DB501B6010318AC
:100A200035143518162D031387100317351C1B2D8D
:100A30000313871403170230B700F830B80003130C
:100A4000DF240317B70B1D2D031387110230031783
:100A5000B700F830B8000313DF240317B70B292DB4
:100A60000313871502300317B700F830B8000313DB
:100A7000DF240317B70B352D0310B10DB20DB30AE8
:100A80000319B40A012D03130715071002300317C9
:100A9000B700F830B8000313DF240317B70B492D54
:100AA00003130714080003172D080313B9000317D5
:100AB0002C080313B80003172B080313B700031700
:100AC0002A080313B60001300317AE000313CB242A
:100AD00039080317BA00031338080317B9000313C2
:100AE00037080317B800031336080317B7000313BA
:100AF000322379080317AF007808AE002F08B10041
:100B00002E08B000031344080317B200B208031DF7
:100B1000BA2D3108B8003008B70003138A208310BB
:100B20007A080317D9007908D8007808D700770821
:100B3000D600031358080317DD00031357080317E3
:100B4000DC00031356080317DB00031355080317D3
:100B5000DA00031320217A080317BA007908B900D4
:100B60007808B8007708B7000313322379081F2EDE
:100B70001F2E0317320BC92D0310300DF900310D54
:100B8000FA007908F8007A08F90003131F2E1F2EC7
:100B900003173208023C031D202E83100313500854
:100BA0000317D90003134F080317D80003134E0887
:100BB0000317D70003134D080317D6000313540877
:100BC0000317DD00031353080317DC000313520857
:100BD0000317DB00031351080317DA000313202166
:100BE00077080317B3007808B4007908B5007A08CD
:100BF000B6003108B8003008B70003138A20831408
:100C000003173608D9003508D8003408D700330850
:100C1000D6007A08DD007908DC007808DB00770868
:100C2000DA00031320217A080317BA007908B90003
:100C30007808B8007708B700031332237908031740
:100C40007908B8007808B70003138A207A08BD0035
:100C50007908BC007808BB007708BA000230031797
:100C6000AE000313CB2439080317BA000313380866
:100C70000317B900031337080317B8000313360826
:100C80000317B700BE01BD014830BC008530BB0072
:100C9000031366220317D901F030D8007F30D70044
:100CA0008A30D6007A08DD007908DC007808DB009D
:100CB0007708DA000313A9207A08B9007908B80088
:100CC0007808B7007708B6003D080317BA00031389
:100CD0003C080317B90003133B080317B8000313BC
:100CE0003A080317B700BE01BD014830BC0085308B
:100CF000BB00031366220317D901F030D8007F3000
:100D0000D7008A30D6007A08DD007908DC00780840
:100D1000DB007708DA000313A9207A08BD00790800
:100D2000BC007808BB007708BA0002300317AE0099
:100D30000313CB2439080317BA0003133808031729
:100D4000B900031337080317B80003133608031755
:100D5000B7000313322379080317AF007808AE00F9
:100D6000B0012F08B2002E08B1000313F2243D0891
:100D70000317BA0003133C080317B90003133B0819
:100D80000317B80003133A080317B70003133223FD
:100D900079080317AF007808AE000130B0002F08C3
:100DA000B2002E08B1000313F2240130F80008004D
:100DB00020300317AE00CF30F700F70BDD2EE02E0A
:100DC000AE0BE72E0313A801F801F42E031703134B
:100DD0008C1AEC2E0317DB2E1808A8001A08F8004E
:100DE000A81CF42E181218160800AC08031D012FB9
:100DF000AD08031D012FAE08031D012FAF08031915
:100E0000D82F2C0DC9002D0DCA002E0DCB002F0D93
:100E1000CC00C90DCA0DCB0DCC0DFC30C90583101B
:100E20000317AD010F30AC004230AB004030AA00D8
:100E300003134C080317B10003134B080317B0004A
:100E400003134A080317AF00031349080317AE0042
:100E500083182D2F323084008317F701F801F90130
:100E6000FA01B201B301B401B501310830042F0415
:100E70002E0403196B2F2030B6000310AA0DAB0D02
:100E8000AC0DAD0DB20DB30DB40DB50D310835027D
:100E9000031D542F30083402031D542F2F08330232
:100EA000031D542F2E083202031C652F2E08B20298
:100EB0002F08031C2F0FB3023008031C300FB4029D
:100EC0003108031C310FB5020314F70DF80DF90DAD
:100ED000FA0DB60B3D2F32088000840A33088000DB
:100EE000840A34088000840A350880007A080313D5
:100EF000CC007908CB007808CA007708C900013017
:100F00000317AE000313CB246808C1006708C000B4
:100F10006608BF006508BE004C080317AD00031348
:100F20004B080317AC0003134A080317AB00031365
:100F300049080317AA00B630F700FA01F901F801D1
:100F40002A082B042C042D04031DA82FF701B52F0C
:100F50000310F81BB42FAA0DAB0DAC0DAD0DFA0D9F
:100F6000F90DF80DF70BA82FF81303134108031719
:100F7000D900031340080317D80003133F080317D1
:100F8000D70003133E080317D6007A08DD0079085E
:100F9000DC007808DB007708DA000313A9207A0860
:100FA000C1007908C0007808BF007708BE00DC2FB8
:100FB000C101C001BF01BE013E08F7003F08F800B3
:0C0FC0004008F9004108FA008A15D62C00
:101000000030F8001F08E33978049F004230F700F1
:10101000F70B082800009F149F180C281E08FA00E0
:1010200083161E0883120317B7007A08B8008A11C6
:1010300003138A208A157A08B9007908B80078085D
:10104000B7007708B60002300317AE008A11031309
:10105000CB248A1539080317BA000313380803177D
:10106000B900031337080317B80003133608031732
:10107000B700BE01C030BD007F30BC008830BB006F
:101080008A11031366228A1577080317AA007808C5
:10109000AB007908AC007A08AD00D9002C08D80064
:1010A0002B08D7002A08D600DD01DC014830DB0020
:1010B0008530DA008A110313A9208A157A08B9004D
:1010C0007908B8007808B7007708B600023003172F
:1010D000AE008A110313CB248A1539080317D500F3
:1010E000031338080317D400031337080317D3007A
:1010F000031336080317D200031350080317D9004F
:1011000003134F080317D80003134E080317D70023
:1011100003134D080317D6008A11031353238A15AE
:10112000031C9A285008B9004F08B8004E08B700B1
:101130004D08B60054080317D500031353080317CE
:10114000D400031352080317D300031351080317E5
:10115000D200031339080317D90003133808031703
:10116000D800031337080317D700031336080317F3
:10117000D6008A11031353238A15031CC728540869
:10118000B9005308B8005208B7005108B600360835
:10119000F7003708F8003808F9003908FA000800A5
:1011A0000317C901C801C701C601CD01CC01CB019C
:1011B000CA01D101D001CF01CE0183143D08D9006D
:1011C0003C08D8003B08D7003A08D6004108DD00AB
:1011D0004008DC003F08DB003E08DA008A110313F8
:1011E00020218A157A08F0007908EF007808EE00CF
:1011F0007708ED0070080317C90003136F08031781
:10120000C80003136E080317C70003136D08031704
:10121000C60083160313640883120317D5008316D0
:101220000313630883120317D400831603136208A1
:1012300083120317D3008316031361088312031765
:10124000D200D901D801D701D6018A110313532343
:101250008A15031D4F2983107E080317D9007D08C6
:10126000D8007C08D7007B08D6007008DD00031387
:101270006F080317DC0003136E080317DB0003136A
:101280006D080317DA008A11031320218A157A08E2
:10129000FE007908FD007808FC007708FB00831445
:1012A00070080317D90003136F080317D80003133E
:1012B0006E080317D70003136D080317D6007408D0
:1012C000DD007308DC007208DB007108DA008A11A7
:1012D000031320218A157A080317CD007908CC0062
:1012E0007808CB007708CA007008F40003136F0871
:1012F000F3006E08F2006D08F10003173108D90001
:101300003008D8002F08D7002E08D6004908DD0085
:101310004808DC004708DB004608DA008A1103139E
:10132000A9208A1577080317D2007808D300790816
:10133000D4007A08D5003508D9003408D80033081D
:10134000D7003208D6007E08DD007D08DC007C086E
:10135000DB007B08DA008A110313A9208A158310A9
:1013600003175508D9005408D8005308D70052086D
:10137000D6007A08DD007908DC007808DB00770801
:10138000DA008A11031320218A1577080317D20087
:101390007808D3007908D4007A08D5003908D90034
:1013A0003808D8003708D7003608D6004D08DD00C9
:1013B0004C08DC004B08DB004A08DA008A110313F2
:1013C000A9208A15831003175508D9005408D8009E
:1013D0005308D7005208D6007A08DD007908DC00EF
:1013E0007808DB007708DA008A11031320218A15B8
:1013F000831003174508D9004408D8004308D700D4
:101400004208D6007A08DD007908DC007808DB00A5
:101410007708DA008A11031320218A157A08031746
:10142000D1007908D0007808CF007708CE005108A5
:10143000D5005008D4004F08D3004E08D200031343
:1014400050080317D90003134F080317D8000313DC
:101450004E080317D70003134D080317D6008A114F
:10146000031353238A15031C4D2A50080317D10078
:1014700003134F080317D00003134E080317CF00C0
:1014800003134D080317CE0083160313E401E30191
:10149000E2017F30E100872A831254080317D50048
:1014A000031353080317D400031352080317D30080
:1014B000031351080317D2005108D9005008D8006F
:1014C0004F08D7004E08D6008A11031353238A15FC
:1014D000031C822A54080317D1000313530803176F
:1014E000D000031352080317CF000313510803174A
:1014F000CE0083160313E401E301E2017F30E10033
:10150000872A83128316E401E301E201E1018312D9
:1015100003174E08F7004F08F8005008F90051086B
:10152000FA0003138A15ED2E840183131F308305FF
:10153000713083168F000F088312A8010C308316B8
:101540009900A2309800903083129800B010B40136
:10155000B301B201B101B501B011C101C001BF01B8
:10156000BE01CC01CB01CA01C9013013F001EF016A
:10157000EE01ED01F401F301F201F101FE01FD01C3
:10158000FC01FB018316E401E301E201E1018312A6
:101590000317870188019C019D019E0103139F127F
:1015A0001F13003083169100970107309C008A11A9
:1015B000831267288A158A1194238A15C70130126D
:1015C000AB01C601B0128316E501E901E801E701AC
:1015D000E601EA01EB01EC01EE01ED01EF018312FE
:1015E00003172010831603138511831285155008E5
:1015F0000317AD0003134F080317AC0003134E0885
:101600000317AB0003134D080317AA008A11031335
:1016100053258A15B501871AFC2B50080317AD0016
:1016200003134F080317AC0003134E080317AB0056
:1016300003134D080317AA008A11031353258A15B3
:101640008316EA018312871AFC2B00308C1A0130B2
:10165000003A0319F32B8A11D8268A157808C80096
:101660004808243C031D4E2BC5014508403C031C83
:101670004E2B450803178D0083168C130C14831210
:101680000C080313C7004230F700F70B452B00008E
:1016900047080C1E492B9900C50A352B48082A3CDF
:1016A000031DED2BC60183166A083F3C031C882BE3
:1016B00083128C1C602B01308316EA0783128C1076
:1016C0008C1E862BA0304607840083130317AD01C0
:1016D0000408AC002D10831B2D148A110313D82687
:1016E0008A1503172C08840083132D188317780894
:1016F00080000230AA00F830B8008A110313DF24FA
:101700008A150317AA0B7B2B0313C60A532B8316C8
:10171000A030831246078400831380010B08F70072
:101720008B1303178D012A308C0083168C130C1534
:1017300055308D00AA308D008C148C189D2B0C1107
:101740007708831203138B0401300317AE008A114C
:101750000313CB248A150130C500C7014508403C5E
:10176000031CE32B01304502A03E840083130008D4
:10177000C7000B08F7008B13450803178D000313F0
:10178000470803178C0083168C130C1555308D00F9
:10179000AA308D008C148C18CB2B0C117708831277
:1017A00003138B044230F700F70BD42B0000C50A5B
:1017B0004708233C031DE22B01308316E50083120A
:1017C000B501E32BAE2B01300317AE008A110313D2
:1017D000CB248A158A1194238A158316650BF42B62
:1017E0008312B501FC2B83160C30F700F70BF62B98
:1017F000F92B0000222B831200308C1A0130003AA2
:1018000003191D2C8A11D8268A157808AA000130E0
:101810000317AE008A110313CB248A152A08093C4A
:1018200003181D2C2A088C3C031C1D2C2A08A90017
:10183000B0148316EE01ED0183128C1C2B2CB50A1B
:101840008316EB0AED0A0319EE0AEC0A83128C10D8
:101850000317201C03133508083C0318362CB50168
:10186000C101C001BF01BE013015301283166B08E3
:10187000013C0318482C8312301D402C8316482C41
:101880008316EB010613403083128606502C831614
:101890008312301D502C8316EB010613831206139E
:1018A00083166E08013C0318612CFF3A031D5C2C63
:1018B0006D08583C0318612C8312B0108316EE019A
:1018C000ED018312B0186A2C301A6A2C43084202C8
:1018D0000318722CB018752C301A752C430842026C
:1018E0000318752C4308C200B82CB018802C301E89
:1018F000802C43084202031C802C4308C200B82CF1
:10190000B0188C2C301E8C2C4308420203188C2CEF
:1019100003172014B72C0313B01C972C301A972CE4
:1019200029084202031C972C2908C200B82CB01CBD
:10193000A22C301AA22C290842020318A22C290832
:10194000C200B82CB01CAD2C301EAD2C29084202B0
:10195000031CAD2C2908C200B82CB01CB82C301EBA
:10196000B82C290842020318B82C031720140313BB
:101970000317201CBE2C0313B016031703132908EA
:10198000093C0318C72C29088C3C0318C92C4308B0
:10199000A900B01ED02C8316051183120515D42C76
:1019A00083160511831205118A11F52E8A157A08FE
:1019B000B4007908B3007808B2007708B100301A93
:1019C000272EFE01FD01FC01FB018316E401E3016A
:1019D000E201E101861383128613033042020317EA
:1019E000B801B7008A1103138A208A157A080317F1
:1019F000D5007908D4007808D3007708D200031303
:101A000034080317D900031333080317D80003134E
:101A100032080317D700031331080317D6008A11C1
:101A2000031353238A150318172D031D582DC60AB7
:101A3000033042020317B801B7008A1103138A204A
:101A40008A157A080317D5007908D4007808D300DE
:101A50007708D200031334080317D900031333089F
:101A60000317D800031332080317D70003133108F4
:101A70000317D6008A11031353238A150318442D24
:101A80000319442DB01D572D50080317AD00031343
:101A90004F080317AC0003134E080317AB000313E2
:101AA0004D080317AA008A11031353258A155E2DCA
:101AB000B0128316051183120511B0114608053CBA
:101AC00003186B2D0317201C672D03136B2D20307B
:101AD0000313B006C6010317A401A301A201A101CB
:101AE000031300207A080317A4007908A3007808DC
:101AF000A2007708A1000330031342020317B801C4
:101B0000B7008A1103138A208A1534080317D500F9
:101B1000031333080317D400031332080317D30049
:101B2000031331080317D2007A08D9007908D800C6
:101B30007808D7007708D6008A11031353238A1533
:101B4000031CB12DB019B12D03172408AD002308D3
:101B5000AC002208AB002108AA008A110313532508
:101B60008A15033042020317B801B7008A11031324
:101B70008A208A157A080317D5007908D4007808D6
:101B8000D3007708D200031334080317D9000313D6
:101B900033080317D800031332080317D7000313C1
:101BA00031080317D6008A11031353238A1503182B
:101BB000DB2D031DDD2DB01D252E0330420703173D
:101BC000B801B7008A1103138A208A153408031755
:101BD000D500031333080317D40003133208031787
:101BE000D300031331080317D2007A08D90079080B
:101BF000D8007808D7007708D6008A11031353233A
:101C00008A150318052E031D262EB01D262E5008FA
:101C10000317D50003134F080317D40003134E080E
:101C20000317D30003134D080317D2002408D9006B
:101C30002308D8002208D7002108D6008A110313F0
:101C400053238A150318252E03193016232F301E0F
:101C5000232F8316861383128617B015C60A4608EB
:101C6000023C03183C2E0317201C382E03133C2E75
:101C700020300313B006C6010317A801A701A6016F
:101C8000A501031300207A080317A8007908A7000C
:101C90007808A6007708A5008310031350080317DF
:101CA000D90003134F080317D80003134E08031776
:101CB000D70003134D080317D600DD01DC01DB015B
:101CC0008030DA008A11031320218A157A0803175D
:101CD000D5007908D4007808D3007708D200280806
:101CE000D9002708D8002608D7002508D6008A1171
:101CF000031353238A15031C112F301C102F30108F
:101D00000317B801031342080317B7008A1103131E
:101D10008A208A1577080317AA007808AB0079088B
:101D2000AC007A08AD0003135C080317B10003137D
:101D30005B080317B00003135A080317AF0003131F
:101D400059080317AE00031360080317B500031307
:101D50005F080317B40003135E080317B3000313EF
:101D60005D080317B200031364080317B9000313D7
:101D700063080317B800031362080317B7000313BF
:101D800061080317B6002D08BD002C08BC002B0805
:101D9000BB002A08BA00031334080317C100031359
:101DA00033080317C000031332080317BF000313DF
:101DB00031080317BE0003136C080317C500031393
:101DC0006B080317C40003136A080317C300031347
:101DD00069080317C2000313D0287A088316E900A4
:101DE0007908E8007808E7007708E60069088312B8
:101DF0000317AD0083160313680883120317AC00A2
:101E000083160313670883120317AB0083160313AB
:101E1000660883120317AA008A11031353258A1533
:101E2000232F83168613831286133012FE01FD01C1
:101E3000FC01FB018316E401E301E201E1018312ED
:101E400003172010031383166C08193C03182F2F57
:101E5000EC01831242080C1E2B2F9900831683126B
:101E60000317A9012908903C031C3D2F5430F700AB
:101E7000F70B382F3B2FA90A322F0130AE008A1101
:0A1E80000313CB248A150B2B63001B
:02400E00E43F8D
:00000001FF
;PIC16F913
;CRC=E4CB  CREATED="10-Feb-19 11:06"
